:100000000C945D000C9485000C9485000C94850084
:100010000C9485000C9485000C9485000C9485004C
:100020000C9485000C9485000C9485000C94D603E8
:100030000C9485000C9485000C9485000C9485002C
:100040000C948C030C9485000C945A030C94340388
:100050000C9485000C9485000C9485000C9485000C
:100060000C9485000C94850000000008000201003B
:100070000003040700000000000000000000000072
:10008000250028002B0000000000240027002A0083
:10009000040404040404040402020202020203032E
:1000A0000303030301020408102040800102040836
:1000B0001020010204081020F30511241FBECFEF09
:1000C000D8E0DEBFCDBF12E0A0E0B1E0E8E0FCE1A7
:1000D00002C005900D92A033B107D9F725E0A0E347
:1000E000B2E001C01D92A135B207E1F710E0CDE505
:1000F000D0E004C02197FE010E94D70CCC35D10777
:10010000C9F70E9492060C94020E0C94000090E035
:10011000FC01EC55FF4F249180579F4FFC018491C7
:10012000882399F090E0880F991FFC01EA57FF4F50
:10013000A591B491FC01E458FF4F859194918FB73C
:10014000F894EC91E22BEC938FBF0895AF92BF929D
:10015000CF92DF92EF92FF920F931F93CF93DF9393
:100160006C017B018B01040F151FEB015E01AE18C2
:10017000BF08C017D10759F06991D601ED91FC91E4
:100180000190F081E02DC6010995892B79F7C50111
:10019000DF91CF911F910F91FF90EF90DF90CF9063
:1001A000BF90AF900895FC01538D448D252F30E012
:1001B000842F90E0821B930B541710F0CF96089574
:1001C00001970895FC01918D828D981761F0A28DA1
:1001D000AE0FBF2FB11D5D968C91928D9F5F9F7367
:1001E000928F90E008958FEF9FEF0895FC01918D1D
:1001F000828D981731F0828DE80FF11D858D90E08A
:1002000008958FEF9FEF0895FC01918D228D892F26
:1002100090E0805C9F4F821B91098F73992708950E
:1002200081EA94E00E94040121E0892B09F420E096
:10023000822F089580E090E0892B29F00E94100120
:1002400081110C9400000895FC01A48DA80FB92F12
:10025000B11DA35ABF4F2C91848D90E001968F73EE
:100260009927848FA689B7892C93A089B1898C910D
:10027000837080648C93938D848D981306C002885C
:10028000F389E02D80818F7D80830895EF92FF9226
:100290000F931F93CF93DF93EC0181E0888F9B8DA9
:1002A0008C8D98131AC0E889F989808185FF15C063
:1002B0009FB7F894EE89FF896083E889F989808186
:1002C0008370806480839FBF81E090E0DF91CF9155
:1002D0001F910F91FF90EF900895F62E0B8D10E077
:1002E0000F5F1F4F0F731127E02E8C8D8E110CC0E6
:1002F0000FB607FCFACFE889F989808185FFF5CF31
:10030000CE010E942401F1CFEB8DEC0FFD2FF11DEA
:10031000E35AFF4FF0829FB7F8940B8FEA89FB896D
:1003200080818062CFCFCF93DF93EC01888D8823CB
:10033000B9F0AA89BB89E889F9898C9185FD03C048
:10034000808186FD0DC00FB607FCF7CF8C9185FF2D
:10035000F2CF808185FFEDCFCE010E942401E9CF4D
:10036000DF91CF91089590E0FC01E859FF4F24916F
:10037000FC01EC55FF4F3491FC01E057FF4FE49135
:10038000EE23C9F0222339F0233001F1A8F4213003
:1003900019F1223029F1F0E0EE0FFF1FE458FF4F72
:1003A000A591B4918FB7F894EC91611126C0309566
:1003B0003E233C938FBF08952730A9F02830C9F021
:1003C000243049F7809180008F7D03C080918000A8
:1003D0008F7780938000DFCF84B58F7784BDDBCFAC
:1003E00084B58F7DFBCF8091B0008F778093B00074
:1003F000D2CF8091B0008F7DF9CF3E2BDACF1F9303
:10040000CF93DF93182FEB010E948700209739F4D8
:1004100060E0812FDF91CF911F910C94B301CF3F0A
:10042000D10511F461E0F5CFE12FF0E0E859FF4F7D
:10043000E491E33031F140F4E130B1F0E230E1F049
:10044000C038D1057CF7E4CFE73029F1E83059F125
:10045000E430B1F780918000806280938000D09377
:100460008B00C0938A0004C084B5806884BDC7BD7A
:10047000DF91CF911F91089584B5806284BDC8BD7E
:10048000F7CF80918000806880938000D0938900AE
:10049000C0938800EDCF8091B00080688093B00059
:1004A000C093B300E5CF8091B00080628093B0002C
:1004B000C093B400DDCF8E3008F08E50877080641A
:1004C00080937C0080917A00806480937A00809190
:1004D0007A0086FDFCCF8091780090917900089594
:1004E0003FB7F8948091350290913602A09137027F
:1004F000B091380226B5A89B05C02F3F19F0019690
:10050000A11DB11D3FBFBA2FA92F982F8827BC016D
:10051000CD01620F711D811D911D42E0660F771F95
:10052000881F991F4A95D1F70895FC01019000207A
:10053000E9F73197AF01481B590BBC0181EA94E000
:100540000C94A6008F929F92AF92BF920F931F932D
:10055000CF93DF93CDB7DEB7A1970FB6F894DEBF88
:100560000FBECDBF19A2423008F44AE08E010F5DE4
:100570001F4F842E912CB12CA12CA50194010E9417
:10058000960CE62FB901CA01EA30F4F4E05DD80117
:10059000EE938D01232B242B252B79F790E080E01F
:1005A000109719F0CD010E949502A1960FB6F8940C
:1005B000DEBF0FBECDBFDF91CF911F910F91BF90D6
:1005C000AF909F908F900895E95CE1CFCF93DF9338
:1005D0000E949502EC0188E191E00E9495028C0F47
:1005E0009D1FDF91CF9108950C949502CF92DF92D9
:1005F000EF92FF92CF93DF936C01990FEE08FF0803
:10060000F7FE19C06DE281EA94E00E944601EC0118
:1006100066277727CB016C197D098E099F094AE06F
:100620000E94A2028C0F9D1FDF91CF91FF90EF904F
:10063000DF90CF9008954AE0C701B601DF91CF91D6
:10064000FF90EF90DF90CF900C94A202CF93DF93B6
:100650000E94F602EC0188E191E00E9495028C0F65
:100660009D1FDF91CF9108951F920F920FB60F92A9
:1006700011242F933F934F935F936F937F938F93A7
:100680009F93AF93BF93EF93FF9381EA94E00E940F
:100690002401FF91EF91BF91AF919F918F917F9135
:1006A0006F915F914F913F912F910F900FBE0F90DF
:1006B0001F9018951F920F920FB60F9211242F932F
:1006C0008F939F93EF93FF93E091B104F091B20465
:1006D0008081E091B704F091B80482FD1BC0908145
:1006E0008091BA048F5F8F732091BB04821741F011
:1006F000E091BA04F0E0EF55FB4F958F8093BA0478
:10070000FF91EF919F918F912F910F900FBE0F90BE
:100710001F9018958081F4CF1F920F920FB60F9201
:1007200011242F933F938F939F93AF93BF93809107
:10073000310290913202A0913302B0913402309193
:10074000300223E0230F2D3758F50196A11DB11D6E
:10075000209330028093310290933202A0933302AF
:10076000B09334028091350290913602A091370205
:10077000B09138020196A11DB11D8093350290936E
:100780003602A0933702B0933802BF91AF919F9188
:100790008F913F912F910F900FBE0F901F90189542
:1007A00026E8230F0296A11DB11DD2CF1F920F92F2
:1007B0000FB60F9211242F923F924F925F926F9239
:1007C0007F928F929F92AF92BF92CF92DF92EF92E1
:1007D000FF920F931F932F933F934F935F936F93CA
:1007E0007F938F939F93AF93BF93EF93FF93CF9399
:1007F000DF9300D000D0CDB7DEB7F89420913E054E
:1008000030913F053A832983F12CE12CD12CC12C66
:10081000A981BA8111968C9111978C151D04C1F094
:10082000BCF01296ED91FC91EE0DFF1DFC83EB8365
:1008300080810E945B02AB81BC8119969C938E9350
:100840001897BFEFCB1ADB0AECE3EE0EF11CE0CFFA
:10085000312C212C10E000E050E6852E5AEE952E2A
:10086000A12CB12CA981BA8111968C911197801776
:10087000110609F00CF48AC11296ED91FC91E20D7B
:10088000F31DFC83EB8340A851A862A873A8808D58
:10089000918DA28DB38D480E591E6A1E7B1E40AAF3
:1008A00051AA62AA73AA84899589A689B789720117
:1008B000E81AF90A868597850C9797878687868533
:1008C000978597FDBCC086859785873F99400CF03A
:1008D000B9C0AB81BC811E968D919C91EB81FC814E
:1008E0009787868780859185C0ACD1AC8C159D0596
:1008F000CCF48285938565E070E00E94820CCB0188
:10090000880F991F680F791F6E157F055CF420858D
:10091000318586A997A92817390724F48085918500
:1009200097AB86ABAB81BC8118968D919C91199742
:10093000C816D9069CF418962D913C911997D49617
:100940008D919C91D5978217930744F418968D91B9
:100950009C911997D5969C938E93D497BBEFEB16E9
:10096000F1040CF4A5C0EB81FC8180859185C8164B
:10097000D9060CF09DC0848581119AC0828593852B
:1009800065E070E00E94820CCB01880F991F680F10
:10099000791F6E157F050CF08BC021E024878489B8
:1009A0009589A689B789F201E81BF90BAB81BC8157
:1009B0001B96FC93EE931A97FD01448A558A668A2A
:1009C000778A83AD882371F013AE7C96CD01C096F3
:1009D000AB81BC811A962D913C91219331938E1756
:1009E0009F07B1F7EB81FC8182AD882371F112AED4
:1009F00021E023AFAB81BC8112968D919C9113971E
:100A000097FD08C01C962C9161E0211101C060E0A7
:100A10000E94B301EB81FC812481358137FD09C03F
:100A2000868597856AE070E00E94820C822F0E9482
:100A3000FF010F5F1F4FFCE32F0E311C13CF90E01F
:100A400080E04CCF86EF99E049CFEB81FC817C962A
:100A50004B815C81425D5F4F30E020E08281938179
:100A600081939193280F391F4E175F07B9F7AB8118
:100A7000BC811A968D919C911B979F969C938E9307
:100A80009E97820F931F6AE070E00E946E0C9B019C
:100A900050E040E0C501B4010E94B80CEB81FC813C
:100AA0003783268321E0258786EF99E0978786871D
:100AB000AB81BC8118968D919C9119978C159D05E1
:100AC0003CF51C968C911C97882311F11C961C9266
:100AD0001C97D6964D915C91D797D4962D913C91C9
:100AE000D597241B350B53963C932E9352975296D1
:100AF0008D919C9197FD019695958795840F951FF3
:100B0000EB81FC8191AF80AF95AB84AB97AB86ABAB
:100B1000F5ECEF16F9E0FF060CF46CCFAB81BC816D
:100B200050968D919C915197D9969C938E93D8977E
:100B3000E0E0F2E0D596FC93EE93D497D796FC9341
:100B4000EE93D69754964D925D926D927C92579704
:100B5000E1E0DA96EC93DA97DB961C92DB971D9630
:100B60001C921D9717961C921E92169728E532E04C
:100B70001B963C932E931A971C961C921C9784E606
:100B800090E053969C938E93529734CF81E0A98145
:100B9000BA8118968C9378940F900F900F900F90C5
:100BA000DF91CF91FF91EF91BF91AF919F918F9185
:100BB0007F916F915F914F913F912F911F910F9175
:100BC000FF90EF90DF90CF90BF90AF909F908F906D
:100BD0007F906F905F904F903F902F900F900FBE3F
:100BE0000F901F9018951092A4041092A30488EE01
:100BF00093E0A0E0B0E08093A5049093A604A093B6
:100C0000A704B093A8048AE091E09093A204809393
:100C1000A10485EC90E09093AE048093AD0484EC45
:100C200090E09093B0048093AF0480EC90E09093B8
:100C3000B2048093B10481EC90E09093B40480936B
:100C4000B30482EC90E09093B6048093B50486ECF4
:100C500090E09093B8048093B7041092BA04109275
:100C6000BB041092BC041092BD0410924A0510926D
:100C7000490582E090E090934C0580934B0580E419
:100C800095E090933F0580933E0581E08093410578
:100C90008CE390E00E94DD0CFC018EE090E09183FB
:100CA00080838FEF9FEF938382839583848382E099
:100CB00090E0A0E0B0E0808F918FA28FB38FDF0132
:100CC0005C96CF01C0961D921D928A179B07D9F79B
:100CD0001586178216828EEE92E09387828714869D
:100CE00010AA11AA12AA13AA148A158A168A178A98
:100CF00080E092E095AB84AB97AB86AB86E292E066
:100D0000918B808B91AF80AF84E690E0938B828B48
:100D100081E082AF13AE17861686F0934305E09309
:100D200042050895CF93DF9300D000D0CDB7DEB752
:100D3000789484B5826084BD84B5816084BD85B5B6
:100D4000826085BD85B5816085BD80916E008160C2
:100D500080936E0010928100809181008260809368
:100D6000810080918100816080938100809180006A
:100D70008160809380008091B10084608093B10095
:100D80008091B00081608093B00080917A0084608F
:100D900080937A0080917A00826080937A008091BB
:100DA0007A00816080937A0080917A0080688093D5
:100DB0007A001092C100E091B104F091B20482E097
:100DC0008083E091AD04F091AE041082E091AF0415
:100DD000F091B0048FEC80831092B904E091B504D7
:100DE000F091B60486E08083E091B304F091B404FE
:100DF000808180618083E091B304F091B4048081AC
:100E000088608083E091B304F091B40480818068AD
:100E10008083E091B304F091B40480818F7D80835E
:100E2000E0914205F0914305118210828DE090E03F
:100E300093838283F89486E292E0918B808B91AFCA
:100E400080AF789410E000E0F12CE12C8091410516
:100E50008E151F0459F154F120914205309143053C
:100E6000200F311F3A832983F9018281938197FDF5
:100E700008C00E94870060E0E981FA8182810E94B7
:100E8000B301E981FA818481958197FD09C00E94AF
:100E9000870070E060E0E981FA8184810E94FF01AF
:100EA000FFEFEF1AFF0A045C1F4FD0CF0E947002C1
:100EB0006053784F8F4F9F4F609344057093450563
:100EC000809346059093470510924805109240057F
:100ED00010928000109282008CE0809381008CE759
:100EE00090E0909389008093880082E080936F0067
:100EF00078948BE191E00E94E60222242394312C25
:100F000082E10E945B028F3F934059F480919F04DD
:100F10009091A004019709F01BC110929E041092B9
:100F20009D0480919D0490919E048130910509F06B
:100F3000FCC19093A00480939F04E0914205F0913E
:100F40004305868197819A83898381E00E945B02B1
:100F5000BC01990F880B990B0E94470B20E030E0F1
:100F600040E85AE30E94FC0B20E030E44CE955E4F1
:100F70000E94FC0B20E030E040E251E40E949D0A18
:100F80006B017C0181E10E945B024C0180E10E94C7
:100F90005B025C01E0914205F0914305F894858580
:100FA00015867894882309F44FC08DEB91E00E9458
:100FB000F40289819A810E94F6028DE391E00E94F9
:100FC000E60260909B0470909C048301000F111F47
:100FD000F801ED52FC4F29813A8131832083F801D9
:100FE000E55FFC4FB182A0820D5B1D4FC701B601CA
:100FF0000E940F0BF80171836083809141029091F0
:10100000420229813A81820F931F9093420280937A
:10101000410280913F0290914002019690934002DC
:1010200080933F0280913D0290913E028217930788
:1010300024F430933E0220933D023FEF631A730A7B
:1010400070929C0460929B0482E491E00E94F402FE
:10105000A7019601C701B6010E94690C882309F413
:101060007CC081E591E00E9495028DE591E00E94AF
:10107000F40288E191E00E949502B5010B2C000C6E
:10108000880B990B0E94470B26E636E646E65FE39F
:101090000E94FC0B20E030E044E752E40E942C0A5E
:1010A0002B013C01A7019601C701B6010E942C0A41
:1010B0009B01AC01C301B2010E942C0A6B017C01AF
:1010C000B401092C000C880B990B0E94470B2DECE6
:1010D0003CEC4CEC5DE30E94FC0B9B01AC01C701B6
:1010E000B6010E942C0A0E940F0B89E00E94FF01AA
:1010F00080E691E00E94F402C5010E94F60288E6B3
:1011000091E00E94E6028114910409F0C4C08DE6CA
:1011100091E00E94F40290E080E00E942603109289
:101120003C0210923B0280913B0290913C024E9710
:101130000CF0BCC085E791E00E94F40280913B0274
:1011400090913C02019690933C0280933B02EBCF3E
:1011500030929E0420929D04E4CE26013701E8944B
:1011600077F82FEF3FEF4FE75FE7C301B2010E942F
:10117000690C81110DC02FEF3FEF4FE75FE7C3010F
:10118000B2010E94980A18161CF485E591E06BCF15
:101190002FEF3FEF4FE75FE4C701B6010E94F70B67
:1011A00018161CF489E591E05ECF2FEF3FEF4FE773
:1011B0005FECC701B6010E94980A87FDF3CF20E0DB
:1011C00030E0A901C701B6010E94980A87FF60C0FC
:1011D0006DE281EA94E00E944601C701B601905891
:1011E0002AE037ED43EA5BE30E942C0A69837A83A5
:1011F0008B839C830E94160B2B013C010E94450BA4
:101200009B01AC0169817A818B819C810E942B0AB0
:1012100069837A838B839C834AE0C301B2010E9475
:10122000A2026EE281EA94E00E94460120E030E0F2
:1012300040E251E469817A818B819C810E94FC0BA0
:1012400069837A838B839C830E94160B2B01712CFC
:10125000612C4AE0C301B2010E94A202C301B201A3
:101260000E94450B9B01AC0169817A818B819C8135
:101270000E942B0A20E030E040E251E40E94FC0B87
:101280000E94160B90E080E04AE00E94A202EDCEA0
:10129000C701B601A5CF181419040CF040CF8DE694
:1012A00091E00E94F40281E090E037CF8AE191E082
:1012B0000E94E6028091390290913A020196909341
:1012C0003A02809339020E9470024B015C0188EE61
:1012D000C82E83E0D82EE12CF12C0E9470026819F0
:1012E00079098A099B09683E734081059105A8F335
:1012F000F1E0CF1AD108E108F10828EE820E23E0D0
:10130000921EA11CB11CC114D104E104F10429F7FF
:1013100080E090E0892B09F4F3CD0E94100188232E
:1013200009F4EECD0E940000EBCD80919F049091D6
:10133000A004019741F610923C0210923B022091CA
:101340003B0230913C0280919B0490919C042817B1
:1013500039070CF046C087E791E00E94F402E09163
:101360003B02F0913C02EE0FFF1FED5BFD4F8081D1
:1013700091810E94F60281EA91E00E94F40284E8E1
:1013800091E00E94F402E0913B02F0913C02EE0FEA
:10139000FF1FE55FFC4F808191810E94F6028BE880
:1013A00091E00E94F40281E991E00E94F402E09150
:1013B0003B02F0913C02EE0FFF1FED52FC4F80818B
:1013C00091810E94F6028EE991E00E94E6028091EE
:1013D0003B0290913C02019690933C0280933B0229
:1013E000AECF1092A00410929F0480914102909180
:1013F000420260913F02709140020E94820C7A8307
:10140000698384EA91E00E94F40280913D02909108
:101410003E020E94260385EB91E00E94F40289813E
:101420009A810E94F6028DE391E00E94E602898192
:101430009A81853691052CF08AEC91E00E94E602B3
:1014400042CFE981FA818DEE91E0E135F105B4F703
:101450008CE092E0F3CF5058BB27AA270E94430AA2
:101460000C94BD0B0E94AF0B38F00E94B60B20F01D
:1014700039F49F3F19F426F40C94AC0B0EF4E0956C
:10148000E7FB0C94A60BE92F0E94CE0B58F3BA177A
:10149000620773078407950720F079F4A6F50C948A
:1014A000F00B0EF4E0950B2EBA2FA02D0B01B90115
:1014B00090010C01CA01A0011124FF27591B99F0CA
:1014C000593F50F4503E68F11A16F040A22F232FD6
:1014D000342F4427585FF3CF469537952795A79526
:1014E000F0405395C9F77EF41F16BA0B620B730BCD
:1014F000840BBAF09150A1F0FF0FBB1F661F771F3E
:10150000881FC2F70EC0BA0F621F731F841F48F4F2
:10151000879577956795B795F7959E3F08F0B0CF7B
:101520009395880F08F09927EE0F97958795089562
:101530000E94820B08F481E008950E94B10A0C9485
:10154000BD0B0E94B60B58F00E94AF0B40F029F47F
:101550005F3F29F00C94A60B51110C94F10B0C94E5
:10156000AC0B0E94CE0B68F39923B1F3552391F392
:10157000951B550BBB27AA2762177307840738F002
:101580009F5F5F4F220F331F441FAA1FA9F335D05F
:101590000E2E3AF0E0E832D091505040E695001C13
:1015A000CAF72BD0FE2F29D0660F771F881FBB1FCD
:1015B000261737074807AB07B0E809F0BB0B802DAB
:1015C000BF01FF2793585F4F3AF09E3F510578F0D7
:1015D0000C94A60B0C94F10B5F3FE4F3983ED4F30C
:1015E000869577956795B795F7959F5FC9F7880FAB
:1015F000911D9695879597F90895E1E0660F771FFD
:10160000881FBB1F621773078407BA0720F0621B8D
:10161000730B840BBA0BEE1F88F7E09508950E94B8
:10162000160B6894B1110C94F10B08950E94D60B1F
:1016300088F09F5798F0B92F9927B751B0F0E1F093
:10164000660F771F881F991F1AF0BA95C9F714C043
:10165000B13091F00E94F00BB1E008950C94F00BC2
:10166000672F782F8827B85F39F0B93FCCF386957C
:1016700077956795B395D9F73EF4909580957095D9
:1016800061957F4F8F4F9F4F0895E89409C097FB56
:101690003EF490958095709561957F4F8F4F9F4F49
:1016A0009923A9F0F92F96E9BB279395F69587958D
:1016B00077956795B795F111F8CFFAF4BB0F11F450
:1016C00060FF1BC06F5F7F4F8F4F9F4F16C08823F7
:1016D00011F096E911C0772321F09EE8872F762F2D
:1016E00005C0662371F096E8862F70E060E02AF06E
:1016F0009A95660F771F881FDAF7880F969587955A
:1017000097F90895990F0008550FAA0BE0E8FEEF2E
:1017100016161706E807F907C0F012161306E407B5
:10172000F50798F0621B730B840B950B39F40A26AE
:1017300061F0232B242B252B21F408950A2609F48C
:10174000A140A6958FEF811D811D089597F99F6790
:1017500080E870E060E008959FEF80EC0895002439
:101760000A941616170618060906089500240A9406
:1017700012161306140605060895092E0394000C8C
:1017800011F4882352F0BB0F40F4BF2B11F460FF1B
:1017900004C06F5F7F4F8F4F9F4F089557FD905844
:1017A000440F551F59F05F3F71F04795880F97FB25
:1017B000991F61F09F3F79F08795089512161306DF
:1017C0001406551FF2CF4695F1DF08C0161617060E
:1017D0001806991FF1CF8695710561050894089543
:1017E000E894BB2766277727CB0197F908950E94D5
:1017F000820B08F48FEF08950E940F0C0C94BD0B20
:101800000E94AF0B38F00E94B60B20F0952311F028
:101810000C94A60B0C94AC0B11240C94F10B0E94AD
:10182000CE0B70F3959FC1F3950F50E0551F629F4B
:10183000F001729FBB27F00DB11D639FAA27F00D29
:10184000B11DAA1F649F6627B00DA11D661F829F50
:101850002227B00DA11D621F739FB00DA11D621F35
:10186000839FA00D611D221F749F3327A00D611D52
:10187000231F849F600D211D822F762F6A2F112434
:101880009F5750409AF0F1F088234AF0EE0FFF1F67
:10189000BB1F661F771F881F91505040A9F79E3FBE
:1018A000510580F00C94A60B0C94F10B5F3FE4F310
:1018B000983ED4F3869577956795B795F795E79514
:1018C0009F5FC1F7FE2B880F911D9695879597F91D
:1018D00008950E94820B880B990B0895AA1BBB1BCD
:1018E00051E107C0AA1FBB1FA617B70710F0A61B20
:1018F000B70B881F991F5A95A9F780959095BC0141
:10190000CD01089597FB072E16F4009407D077FDBC
:1019100009D00E946E0C07FC05D03EF4909581958D
:101920009F4F0895709561957F4F0895A1E21A2EFB
:10193000AA1BBB1BFD010DC0AA1FBB1FEE1FFF1F73
:10194000A217B307E407F50720F0A21BB30BE40BC3
:10195000F50B661F771F881F991F1A9469F760950A
:101960007095809590959B01AC01BD01CF010895C4
:10197000052E97FB1EF400940E94CF0C57FD07D054
:101980000E94960C07FC03D04EF40C94CF0C50959B
:101990004095309521953F4F4F4F5F4F089590955B
:1019A0008095709561957F4F8F4F9F4F0895EE0FF3
:1019B000FF1F0590F491E02D09940F931F93CF938F
:1019C000DF938230910510F482E090E0E0914F05C2
:1019D000F091500530E020E0B0E0A0E0309799F4BD
:1019E0002115310509F44AC0281B390B2430310573
:1019F000D8F58A819B816115710589F1FB0193837B
:101A00008283FE0111C040815181028113814817F8
:101A10005907E0F04817590799F4109761F01296AA
:101A20000C93129713961C933296CF01DF91CF91AE
:101A30001F910F91089500934F0510935005F4CF17
:101A40002115310551F04217530738F0A901DB0188
:101A50009A01BD01DF01F801C1CFEF01F9CF9093E9
:101A6000500580934F05CDCFFE01E20FF31F819308
:101A700091932250310939832883D7CF20914D0586
:101A800030914E05232B41F4209102013091030146
:101A900030934E0520934D052091000130910101B6
:101AA0002115310541F42DB73EB740910401509105
:101AB0000501241B350BE0914D05F0914E05E21711
:101AC000F307A0F42E1B3F0B2817390778F0AC0161
:101AD0004E5F5F4F2417350748F04E0F5F1F50933E
:101AE0004E0540934D05819391939FCFF0E0E0E048
:101AF0009CCFCF93DF930097E9F0FC0132971382DC
:101B00001282A0914F05B0915005ED0130E020E028
:101B10001097A1F420813181820F931F20914D05F0
:101B200030914E052817390709F061C0F0934E0532
:101B3000E0934D05DF91CF910895EA01CE17DF07BD
:101B4000E8F54A815B819E0141155105B1F7E90134
:101B5000FB83EA8349915991C40FD51FEC17FD0708
:101B600061F4808191810296840F951FE901998328
:101B70008883828193819B838A83F0E0E0E01296E0
:101B80008D919C9113970097B9F52D913C911197E8
:101B9000CD010296820F931F20914D0530914E0585
:101BA0002817390739F6309751F5109250051092E1
:101BB0004F05B0934E05A0934D05BCCFD383C28390
:101BC00040815181840F951FC817D90761F44E5F7A
:101BD0005F4F88819981480F591F518340838A81C3
:101BE0009B81938382832115310509F0B0CFF09357
:101BF0005005E0934F059ECFFD01DC01C0CF13825D
:081C00001282D7CFF894FFCF48
:101C0800000051058000000000004601A600D30036
:101C180093010401E200F6000D0A00576520637283
:101C2800656174656420612070756C736553656EB9
:101C3800736F72204F626A656374202100204250DE
:101C48004D0054454D5045524154555245203D2074
:101C5800006E616E00696E66006F7666002A43004A
:101C68004C696768743A2000206C757800536F756A
:101C78006E643A20002D0054656D7065726174754C
:101C880072653A004C696768743A004C7578202090
:101C980000486561727462656174733A200042504D
:101CA8004D2020004D61782048656172742042659E
:101CB80061743A2000417665726167652048656104
:101CC800727420526174653A2000546865207175F9
:101CD800616C697479206F6620736C656570207714
:101CE8006173206E6F7420676F6F6421005468659C
:101CF800207175616C697479206F6620736C6565F5
:101D0800702077617320676F6F64210054686520C5
:101D18007175616C697479206F6620736C65657084
:101D2800207761732070726F666F756E6421000092
:00000001FF
